:020000040800F2
:1000000000000524651B00082117000823170008BD
:10001000251700082717000829170008000000000E
:100020000000000000000000000000003176000821
:100030002B17000800000000D17600083577000873
:10004000B51B0008B51B0008B51B0008B51B000850
:10005000B51B0008B51B0008B51B0008B51B000840
:10006000B51B0008B51B0008B51B00082D170008BC
:100070003D1700084D170008B51B0008B51B000808
:10008000B51B0008B51B0008B51B0008B51B000810
:10009000B51B0008B51B0008B51B0008B51B000800
:1000A000B51B0008B51B0008B51B0008B51B0008F0
:1000B000B51B0008B51B0008B51B0008B51B0008E0
:1000C000B51B0008B51B0008B51B0008B51B0008D0
:1000D0005D170008B51B0008B51B0008B51B00081C
:1000E000B51B0008B51B000800000000B51B000888
:1000F000B51B0008B51B0008B51B0008B51B0008A0
:10010000B51B0008B51B0008B51B0008B51B00088F
:10011000B51B00086D170008B51B00087D17000807
:10012000B51B0008B51B0008B51B0008B51B00086F
:10013000B51B0008B51B0008B51B0008B51B00085F
:1001400000000000000000000000000000000000AF
:10015000B51B0008B51B0008B51B0008B51B00083F
:10016000B51B0008B51B0008B51B0008B51B00082F
:10017000B51B0008B51B0008B51B000800000000F7
:10018000B51B0008B51B0008B51B0008B51B00080F
:10019000B51B0008B51B0008B51B0008B51B0008FF
:1001A000B51B0008B51B0008B51B000800000000C7
:1001B000B51B0008B51B0008B51B0008B51B0008DF
:1001C000B51B0008B51B000800000000000000007F
:1001D0000000000000000000B51B00080000000047
:1001E000000000000000000000000000000000000F
:1001F0000000000000000000B51B0008B51B00084F
:10020000B51B0008B51B000800000000B51B000866
:10021000B51B0008B51B0008B51B0008B51B00087E
:10022000B51B000800000000B51B0008000000001E
:10023000B51B0008B51B000800000000B51B000836
:10024000B51B0008B51B0008B51B0008B51B00084E
:10025000B51B0008B51B0008B51B0008B51B00083E
:10026000B51B0008B51B0008B51B0008B51B00082E
:10027000B51B0008B51B0008B51B000800000000F6
:10028000B51B0008B51B0008B51B0008B51B00080E
:1002900000000000B51B0008B51B000800000000AE
:1002A00000000000B51B0008B51B0008B51B0008C6
:1002B000B51B0008B51B0008B51B0008B51B0008DE
:0C02C000B51B0008B51B0008B51B0008AA
:1003000081F0004102E000BF83F0004330B54FEAC6
:1003100041044FEA430594EA050F08BF90EA020F33
:100320001FBF54EA000C55EA020C7FEA645C7FEAC6
:10033000655C00F0E2804FEA5454D4EB5555B8BFE9
:100340006D420CDD2C4480EA020281EA030382EA5A
:10035000000083EA010180EA020281EA0303362DEC
:1003600088BF30BD11F0004F4FEA01314FF4801CBF
:100370004CEA113102D0404261EB410113F0004FD1
:100380004FEA03334CEA133302D0524263EB430388
:1003900094EA050F00F0A780A4F10104D5F1200E26
:1003A0000DDB02FA0EFC22FA05F2801841F1000181
:1003B00003FA0EF2801843FA05F359410EE0A5F155
:1003C00020050EF1200E012A03FA0EFC28BF4CF086
:1003D000020C43FA05F3C01851EBE37101F000453C
:1003E00007D54FF0000EDCF1000C7EEB00006EEB49
:1003F0000101B1F5801F1BD3B1F5001F0CD34908D3
:100400005FEA30004FEA3C0C04F101044FEA445229
:1004100012F5800F80F09A80BCF1004F08BF5FEAB0
:10042000500C50F1000041EB045141EA050130BD90
:100430005FEA4C0C404141EB0101013C28BFB1F5A2
:10044000801FE9D291F0000F04BF01460020B1FAED
:1004500081F308BF2033A3F10B03B3F120020CDAC0
:100460000C3208DD02F1140CC2F10C0201FA0CF09E
:1004700021FA02F10CE002F11402D8BFC2F1200C03
:1004800001FA02F120FA0CFCDCBF41EA0C019040B9
:10049000E41AA2BF01EB0451294330BD6FEA040402
:1004A0001F3C1CDA0C340EDC04F11404C4F12002ED
:1004B00020FA04F001FA02F340EA030021FA04F3FF
:1004C00045EA030130BDC4F10C04C4F1200220FA56
:1004D00002F001FA04F340EA0300294630BD21FA94
:1004E00004F0294630BD94F0000F83F4801306BF5A
:1004F00081F480110134013D4EE77FEA645C18BF4E
:100500007FEA655C29D094EA050F08BF90EA020FE4
:1005100005D054EA000C04BF1946104630BD91EADC
:10052000030F1EBF0021002030BD5FEA545C05D1DF
:100530004000494128BF41F0004130BD14F580041E
:100540003CBF01F5801130BD01F0004545F0FE4192
:1005500041F470014FF0000030BD7FEA645C1ABFC7
:10056000194610467FEA655C1CBF0B46024650EAFE
:10057000013406BF52EA033591EA030F41F400212A
:1005800030BD00BF90F0000F04BF0021704730B5B0
:100590004FF4806404F132044FF000054FF0000185
:1005A00050E700BF90F0000F04BF0021704730B546
:1005B0004FF4806404F1320410F0004548BF40421B
:1005C0004FF000013EE700BF42004FEAE2014FEA70
:1005D00031014FEA02701FBF12F07F4393F07F4F4B
:1005E00081F06051704732F07F4208BF704793F04E
:1005F0007F4F04BF41F40021704730B54FF4607461
:1006000001F0004521F000411CE700BF50EA010263
:1006100008BF704730B54FF000050AE050EA01020C
:1006200008BF704730B511F0004502D5404261EB7C
:1006300041014FF4806404F132045FEA915C3FF4BD
:10064000D8AE4FF003025FEADC0C18BF03325FEA5A
:10065000DC0C18BF033202EBDC02C2F1200300FA0B
:1006600003FC20FA02F001FA03FE40EA0E0021FA30
:1006700002F11444BDE600BF4FEA4102B2F1E0438B
:1006800024BFB3F5001CDCF1FE5C0DD901F0004C79
:100690004FEAC0024CEA5070B2F1004F40EB8300C9
:1006A00008BF20F00100704711F0804F21D113F1F5
:1006B0003872BCBF01F00040704741F480114FEA2E
:1006C0005252C2F11802C2F1200C10FA0CF320FAB7
:1006D00002F018BF40F001004FEAC1234FEAD323D4
:1006E00003FA0CFC40EA0C0023FA02F34FEA43033E
:1006F000CCE77FEA625307D150EA01331EBF4FF0C7
:10070000FE4040F44000704701F0004040F0FE40E1
:1007100040F40000704700BF53B94AB9002908BF30
:1007200000281CBF4FF0FF314FF0FF3000F00CB835
:10073000ADF1080C6DE904CE08F0BCFDDDF804E075
:10074000DDE9022304B07047704700BF844641EAE8
:10075000000313F003036DD1403A41D351F8043B39
:1007600040F8043B51F8043B40F8043B51F8043B8B
:1007700040F8043B51F8043B40F8043B51F8043B7B
:1007800040F8043B51F8043B40F8043B51F8043B6B
:1007900040F8043B51F8043B40F8043B51F8043B5B
:1007A00040F8043B51F8043B40F8043B51F8043B4B
:1007B00040F8043B51F8043B40F8043B51F8043B3B
:1007C00040F8043B51F8043B40F8043B51F8043B2B
:1007D00040F8043B51F8043B40F8043B403ABDD29A
:1007E000303211D351F8043B40F8043B51F8043B3C
:1007F00040F8043B51F8043B40F8043B51F8043BFB
:1008000040F8043B103AEDD20C3205D351F8043BCA
:1008100040F8043B043AF9D2043208D0D2071CBF96
:1008200011F8013B00F8013B01D30B8803806046BF
:10083000704700BF082A13D38B078DD010F0030335
:100840008AD0C3F10403D21ADB071CBF11F8013BA5
:1008500000F8013B80D331F8023B20F8023B7BE7F4
:10086000043AD9D3013A11F8013B00F8013BF9D21F
:100870000B7803704B7843708B78837060467047B9
:1008800001F0FF01102A2BDB10F0070F08D010F841
:10089000013B013A8B422DD010F0070F42B3F6D145
:1008A000F0B441EA012141EA014122F007047FF05E
:1008B00000070023F0E80256083C85EA010586EAB5
:1008C000010685FA47F5A3FA87F586FA47F6A5FAF1
:1008D00087F68EB9EED1F0BC01F0FF0102F00702FD
:1008E00032B110F8013B013A83EA010313B1F8D1A8
:1008F0000020704701387047002D06BF3546033889
:10090000073815F0010F07D1013015F4807F02BFC1
:10091000013015F4C03F0130F0BC0138704700BF12
:1009200000000000000000000000000000000000C7
:1009300000000000000000000000000000000000B7
:1009400030B490F800F020F007016FF0000C10F0C8
:10095000070491F820F040F048804FF000046FF059
:100960000700D1E9002391F840F000F1080082FA75
:100970004CF2A4FA8CF283FA4CF3A2FA8CF34BBB40
:10098000D1E9022382FA4CF200F10800A4FA8CF2B9
:1009900083FA4CF3A2FA8CF3E3B9D1E9042382FA87
:1009A0004CF200F10800A4FA8CF283FA4CF3A2FA9C
:1009B0008CF37BB9D1E9062301F1200182FA4CF2D4
:1009C00000F10800A4FA8CF283FA4CF3A2FA8CF33B
:1009D000002BC6D0002A04BF04301A4612BAB2FA5D
:1009E00082F200EBD20030BC7047D1E9002304F062
:1009F0000305C4F100004FEAC50514F0040F91F897
:100A000040F00CFA05F562EA05021CBF63EA050333
:100A100062464FF00004AAE770B54FF0FF0C4CF4AB
:100A2000E06C1CEA11541DBF1CEA135594EA0C0F2C
:100A300095EA0C0F00F0DEF82C4481EA030621EA67
:100A40004C5123EA4C5350EA013518BF52EA0335A2
:100A500041F4801143F4801338D0A0FB02CE4FF054
:100A60000005E1FB02E506F00042E0FB03E54FF084
:100A70000006E1FB03569CF0000F18BF4EF0010E7C
:100A8000A4F1FF04B6F5007F64F5407404D25FEA78
:100A90004E0E6D4146EB060642EAC62141EA55512B
:100AA0004FEAC52040EA5E504FEACE2EB4F1FD0C6D
:100AB00088BFBCF5E06F1ED8BEF1004F08BF5FEAEB
:100AC000500E50F1000041EB045170BD06F000469D
:100AD00046EA010140EA020081EA0301B4EB5C044A
:100AE000C2BFD4EB0C0541EA045170BD41F4801142
:100AF0004FF0000E013C00F3AB8014F1360FDEBF67
:100B0000002001F0004170BDC4F10004203C35DA42
:100B10000C341BDC04F11404C4F1200500FA05F3C5
:100B200020FA04F001FA05F240EA020001F0004266
:100B300021F0004110EBD37021FA04F642EB0601DC
:100B40005EEA430E08BF20EAD37070BDC4F10C0406
:100B5000C4F1200500FA04F320FA05F001FA04F2CA
:100B600040EA020001F0004110EBD37041F10001B6
:100B70005EEA430E08BF20EAD37070BDC4F12005C1
:100B800000FA05F24EEA020E20FA04F301FA05F229
:100B900043EA020321FA04F001F0004121FA04F2D1
:100BA00020EA020000EBD3705EEA430E08BF20EAA1
:100BB000D37070BD94F0000F0FD101F000464000DB
:100BC00041EB010111F4801F08BF013CF7D041EA5D
:100BD000060195F0000F18BF704703F00046520061
:100BE00043EB030313F4801F08BF013DF7D043EA32
:100BF0000603704794EA0C0F0CEA135518BF95EAE8
:100C00000C0F0CD050EA410618BF52EA4306D1D16E
:100C100081EA030101F000414FF0000070BD50EA8D
:100C2000410606BF1046194652EA430619D094EA17
:100C30000C0F02D150EA013613D195EA0C0F05D101
:100C400052EA03361CBF104619460AD181EA030155
:100C500001F0004141F0FE4141F470014FF000000D
:100C600070BD41F0FE4141F4780170BD70B54FF0A8
:100C7000FF0C4CF4E06C1CEA11541DBF1CEA135528
:100C800094EA0C0F95EA0C0F00F0A7F8A4EB05040A
:100C900081EA030E52EA03354FEA013100F0888001
:100CA0004FEA03334FF0805545EA131343EA1263CA
:100CB0004FEA022245EA111545EA10654FEA00267F
:100CC0000EF000419D4208BF964244F1FD0404F538
:100CD000407402D25B084FEA3202B61A65EB030594
:100CE0005B084FEA32024FF480104FF4002CB6EB51
:100CF000020E75EB030E22BFB61A754640EA0C00D1
:100D00005B084FEA3202B6EB020E75EB030E22BF10
:100D1000B61A754640EA5C005B084FEA3202B6EB51
:100D2000020E75EB030E22BFB61A754640EA9C0010
:100D30005B084FEA3202B6EB020E75EB030E22BFE0
:100D4000B61A754640EADC0055EA060E18D04FEA9E
:100D5000051545EA16754FEA06164FEAC30343EA3E
:100D600052734FEAC2025FEA1C1CC0D111F4801F0B
:100D70000BD141EA00014FF000004FF0004CB6E704
:100D800011F4801F04BF01430020B4F1FD0C88BFA3
:100D9000BCF5E06F3FF6AFAEB5EB030C04BFB6EBAE
:100DA000020C5FEA500C50F1000041EB045170BDA1
:100DB0000EF0004E4EEA113114EB5C04C2BFD4EBCE
:100DC0000C0541EA045170BD41F480114FF0000E52
:100DD000013C90E645EA060E8DE60CEA135594EACE
:100DE0000C0F08BF95EA0C0F3FF43BAF94EA0C0FD1
:100DF0000AD150EA01347FF434AF95EA0C0F7FF446
:100E000025AF104619462CE795EA0C0F06D152EA99
:100E100003353FF4FDAE1046194622E750EA41067D
:100E200018BF52EA43067FF4C5AE50EA41047FF48E
:100E30000DAF52EA43057FF4EBAE12E74FF0FF3CF3
:100E400006E000BF4FF0010C02E000BF4FF0010CC4
:100E50004DF804CD4FEA410C7FEA6C5C4FEA430C3D
:100E600018BF7FEA6C5C1BD001B050EA410C0CBF8C
:100E700052EA430C91EA030F02BF90EA020F0020EE
:100E8000704710F1000F91EA030F58BF994208BF55
:100E900090422CBFD8176FEAE37040F00100704712
:100EA0004FEA410C7FEA6C5C02D150EA013C07D169
:100EB0004FEA430C7FEA6C5CD6D152EA033CD3D0B4
:100EC0005DF8040B704700BF8446104662468C46AE
:100ED0001946634600E000BF01B5FFF7B7FF0028E1
:100EE00048BF10F1000F01BD4DF808EDFFF7F4FF0A
:100EF0000CBF012000205DF808FB00BF4DF808ED95
:100F0000FFF7EAFF34BF012000205DF808FB00BFB7
:100F10004DF808EDFFF7E0FF94BF012000205DF8D9
:100F200008FB00BF4DF808EDFFF7CEFF94BF01208E
:100F300000205DF808FB00BF4DF808EDFFF7C4FF87
:100F400034BF012000205DF808FB00BF4FEA410CD0
:100F50007FEA6C5C02D150EA013C0AD14FEA430CB3
:100F60007FEA6C5C02D152EA033C02D14FF00000F0
:100F700070474FF0010070474FEA410212F500122E
:100F800015D211D56FF47873B3EB625212D94FEAD0
:100F9000C12343F0004343EA505311F0004F23FABA
:100FA00002F018BF404270474FF00000704750EA0F
:100FB000013005D111F0004008BF6FF000407047CC
:100FC0004FF00000704700BF0348044B834202D03B
:100FD000034B03B11847704704070024040700249B
:100FE000000000000548064B1B1AD90F01EBA301B6
:100FF000491002D0034B03B118477047040700247F
:10100000040700240000000010B5064C237843B903
:10101000FFF7DAFF044B13B10448AFF3008001235C
:10102000237010BD080700240000000068FD0008C0
:1010300008B5054B1BB105490548AFF30080BDE875
:101040000840FFF7CFBF00BF000000000C070024DE
:1010500068FD000800B583B0134BD3F8D82042F0E8
:101060000102C3F8D820D3F8D83003F0010301936C
:10107000019B002205210B2000F030FE0B2000F028
:101080003DFE002205210C2000F028FE0C2000F07F
:1010900035FE002205210D2000F020FE0D2000F07D
:1010A0002DFE03B05DF804FB0044025808B5012092
:1010B00006F01AFAFBE708B5012006F015FAFBE77F
:1010C000034B0360034B0B6080231360704700BF2A
:1010D000280900242407002410B5A4B02D4C0DF1DC
:1010E000740CA646BEE80F00ACE80F009EE80700AF
:1010F0008CE8070000211DA806F0C3F9264B1860F4
:101100000DF1580C04F11C0EBEE80F00ACE80F0006
:101110009EE807008CE80700002116A806F0B1F948
:101120001E4B18600DF13C0C04F1380EBEE80F00A8
:10113000ACE80F009EE807008CE8070000210FA82C
:1011400006F09FF9164B18600DF1200C04F1540EB7
:10115000BEE80F00ACE80F009EE807008CE807002F
:10116000002108A806F08DF90E4B18600DF1040E51
:1011700004F1700CBCE80F00AEE80F009CE807001B
:101180008EE80700002101A806F07BF9064B1860E5
:1011900024B010BD80FD0008D00A0024CC0A002431
:1011A000C80A0024C40A0024C00A002470B58CB008
:1011B00000240794089409940A940B94384BD3F8AC
:1011C000E02042F00402C3F8E020D3F8E02002F06F
:1011D00004020192019AD3F8E02042F08002C3F8A1
:1011E000E020D3F8E02002F080020292029AD3F8C5
:1011F000E02042F00102C3F8E020D3F8E02002F042
:1012000001020392039AD3F8E02042F01002C3F8DF
:10121000E020D3F8E02002F010020492049AD3F800
:10122000E02042F00202C3F8E020D3F8E02002F010
:1012300002020592059AD3F8E02042F00802C3F8B2
:10124000E020D3F8E03003F008030693069B154D29
:1012500001224EF20901284602F0FCF94FF46043E6
:1012600007930126089609940A9407A9284602F0D4
:10127000E7F8092307930896099403230A9307A91B
:10128000284602F0DDF84FF4A05307934FF488137B
:101290000893099407A9044802F0D2F80CB070BD75
:1012A00000440258000802580010025808B50268AD
:1012B000034B9A4200D008BD00F0ACFCFBE700BF36
:1012C0000014004072B6FEE700B59DB04C2200212C
:1012D00009A808F0A1FA2022002101A808F09CFA30
:1012E000022002F0BDF900230093204B9A6922F4FA
:1012F00040429A619B6903F440430093009B1B4B5F
:101300009B6913F4005FFAD0012209924FF48033F5
:101310000A93022312931393149328211591169282
:10132000179318930C23199300231A931B9309A85E
:1013300002F0C0F9A8B93F230193032102910023D1
:101340000393082304934023059306934FF480628C
:101350000792089301A802F09BFD20B91DB05DF82B
:1013600004FBFFF7AFFFFFF7ADFF00BF00480258D7
:1013700008B500F021FCFFF7A7FFFFF717FFFFF705
:1013800069FE00F049F800F0F1FA00F0B3FA00F05D
:1013900013F807F04DF90028FBD132220449054823
:1013A00006F03CF8FFF798FE06F066F8FEE700BF8F
:1013B000E4850024640E002408B51548154B03602D
:1013C0004FF480034360002383600722C2604FF024
:1013D000007202614FF0807242614FF08062826160
:1013E0004FF08042C261036243628362C362426320
:1013F0008363C363036443648364C36403654365B5
:10140000836503F0C3FF00B908BDFFF75BFFFBE78F
:10141000800C00240038004008B51648164B0360C5
:101420004FF4800343604FF4003383600723C360AD
:10143000002303614FF0807242614FF0806282614D
:101440004FF08052C261036243628362C3624FF015
:10145000804242638363C363036443648364C364FD
:1014600003654365836503F091FF00B908BDFFF78D
:1014700029FFFBE7F80B002400140058F0B5BBB0BF
:101480000446002135913691379138913991B8222F
:1014900006A808F0C1F92368634A934205D0634A5D
:1014A000934200F08B803BB0F0BD4FF4805200239C
:1014B000CDE9062306A802F0ADFF002875D15C4BEC
:1014C000D3F8E82042F48042C3F8E820D3F8E820BB
:1014D00002F480420192019AD3F8E02042F0040223
:1014E000C3F8E020D3F8E02002F004020292029A4E
:1014F000D3F8E02042F00202C3F8E020D3F8E03055
:1015000003F002030393039B0623359302273697C8
:101510000025379538950526399635A9454801F0B7
:101520008FFF4FF40053359336973795389539969A
:1015300035A9414801F084FF4048414B036027230F
:1015400043608560C5604FF48063036145618561D8
:10155000C5614FF440330362456200F0E3FD38BBE0
:10156000364BE3679C633748374B0360282343605F
:10157000402383600023C3604FF4806202614361B3
:101580008361C3614FF400320262436200F0CAFD1E
:1015900088B92C4BA3679C6300220521242000F00E
:1015A0009DFB242000F0AAFB7DE7FFF78BFE86E77A
:1015B000FFF788FED4E7FFF785FEEAE74FF48042A5
:1015C0000023CDE906234FF0A043319306A802F093
:1015D00021FF30BB164BD3F8F42042F02002C3F8B1
:1015E000F420D3F8F42002F020020492049AD3F8F5
:1015F000E02042F00102C3F8E020D3F8E03003F02D
:1016000001030593059BA023359302233693002302
:10161000379338930823399335A90C4801F010FF0C
:1016200041E7FFF74FFED5E70038004000140058AF
:10163000004402580008025800040258800B00249D
:1016400010000240080B002428000240000002584D
:1016500000B583B00A4BD3F8F42042F00202C3F87D
:10166000F420D3F8F43003F002030193019B00222D
:101670000F216FF0010000F031FB03B05DF804FBB7
:10168000004402580F2801D90120704710B58AB0D4
:10169000044600220146372000F020FB372000F0EE
:1016A0002DFB1A4B1C601A4BD3F8E82042F02002A5
:1016B000C3F8E820D3F8E83003F020030093009B40
:1016C00001A902A802F074FD079BBBB902F04CFD12
:1016D0000346104AA2FB03239B0C013B0E480F4A12
:1016E000026040F2E732C26043600023036183601E
:1016F00004F09AFD30B101200AB010BD02F034FDB3
:101700004300E6E7044804F0E5FBF5E71C0000248D
:101710000044025883DE1B43080D002400140040DF
:10172000FEE7FEE7FEE7FEE7FEE7704708B5024882
:1017300001F0EAFA08BD00BF800B002408B502489A
:1017400001F0E2FA08BD00BF080B002408B502480A
:1017500001F0DAFA08BD00BF580D002408B50248B0
:1017600004F096FA08BD00BF800C002408B50248BA
:1017700004F01EFE08BD00BF640E002408B5024838
:1017800004F0FCFB08BD00BF080D002401207047D9
:1017900008B508F01DF9162303604FF0FF3008BDAF
:1017A00008B54FF0FF31FFF7F3FFFEE770B50C46C9
:1017B0001646002506E0AFF30080214601F8010B34
:1017C00001350C46B542F6DB304670BD70B50C46AF
:1017D0001646002504E014F8010BAFF30080013534
:1017E000B542F8DB304670BD4FF0FF3070474FF424
:1017F00000534B6000207047012070470020704765
:1018000010B503460C4A0D490D48006840B10C481C
:1018100000680344521A934206D8094A136010BD67
:101820000748084C0460F2E708F0D2F80C23036084
:101830004FF0FF30F3E700BF000005240004000074
:10184000540D0024188A0024224AD2F8883043F428
:101850007003C2F88830204B1B6803F00F03062B7F
:1018600006D81D4A136823F00F0343F007031360E3
:101870001A4B1A6842F001021A6000221A611968B4
:10188000174A0A401A60144B1B6813F0080F06D061
:10189000114A136823F00F0343F0070313600F4B43
:1018A00000229A61DA611A620E4999620E49D96280
:1018B0000E4919635A639963DA6319645A641968A3
:1018C00021F4802119601A66094B43F2D2021A6092
:1018D000704700BF00ED00E00020005200440258B5
:1018E0007FEDF6EA000202020000FF018002010122
:1018F0000040005208B51A481A4B03601A4B436067
:101900004FF4805383604FF40053C3604FF48063FF
:1019100003610C23436100238361C361036243625B
:10192000836205F05EFC70B900210D4805F02CFDC6
:1019300060B900210A4805F04CFD50B9084805F08F
:1019400004FD48B908BDFFF7BDFCEDE7FFF7BAFCA1
:10195000EFE7FFF7B7FCF1E7FFF7B4FCF2E700BFF2
:10196000640E002400500040A086010008B517480E
:10197000174B03604FF46123436000238360C3600F
:1019800003610C2242618361C3610362436283622B
:1019900005F027FC70B900210C4805F0F5FC60B992
:1019A00000210A4805F015FD50B9084805F0CDFCA6
:1019B00048B908BDFFF786FCEDE7FFF783FCEFE7CA
:1019C000FFF780FCF1E7FFF77DFCF2E7D00D002484
:1019D00000100140F0B5BBB00446002135913691AE
:1019E000379138913991B82206A807F015FF23687E
:1019F000544A934204D0544A934270D03BB0F0BD55
:101A000002220023CDE9062306A802F003FD0028E8
:101A10005FD14E4BD3F8E82042F48012C3F8E8209F
:101A2000D3F8E82002F480120192019AD3F8E02062
:101A300042F00402C3F8E020D3F8E02002F00402F0
:101A40000292029AD3F8E02042F00802C3F8E020A4
:101A5000D3F8E03003F008030393039B4FF4805363
:101A600035930227369700253795389508263996FD
:101A700035A9374801F0E4FC0423359336973795B0
:101A80003895399635A9334801F0DAFC3248334BA2
:101A90000360412343608560C5604FF48063036148
:101AA000456185614FF48073C3614FF44033036235
:101AB000456200F037FB78B9274BC4F880309C634F
:101AC00000220521352000F009F9352000F016F933
:101AD00094E7FFF7F7FB9CE7FFF7F4FBECE7012245
:101AE0000023CDE9062306A802F094FC38BB174B6F
:101AF000D3F8F02042F01002C3F8F020D3F8F02021
:101B000002F010020492049AD3F8E02042F001029D
:101B1000C3F8E020D3F8E03003F001030593059B00
:101B20004FF4C063359302233693002337933893E1
:101B30000723399335A90A4801F082FC5EE7FFF7D5
:101B4000C1FBD4E70050004000100140004402589F
:101B500000080258000C0258580D002440000240B2
:101B600000000258DFF834D0FFF76EFE0C480D4934
:101B70000D4A002302E0D458C4500433C4188C42E8
:101B8000F9D30A4A0A4C002301E013600432A2424E
:101B9000FBD307F023FFFFF7EBFB704700000524A2
:101BA000000000240407002404030108080700249F
:101BB000188A0024FEE7000010B5032000F07CF82E
:101BC00002F06AF80F498B69C3F303230E4AD35C12
:101BD00003F01F03D8408B6903F00F03D35C03F0BD
:101BE0001F0320FA03F3094A1360094B18600F2002
:101BF000FFF748FD10B10124204610BD0446FFF751
:101C000027FDF9E700440258F8FF000810000024FF
:101C100014000024034B1B78034A11680B44136023
:101C2000704700BF18000024F80E0024014B18680C
:101C3000704700BFF80E0024002807DB00F01F02E9
:101C4000400901239340024A42F82030704700BF08
:101C500000E100E0002804DB0901C9B2044B19547B
:101C6000704700F00F000901C9B2024B19547047C8
:101C700000E400E014ED00E000B500F00700C0F162
:101C8000070CBCF1040F28BF4FF0040C031D062BFA
:101C90000FD9C31E4FF0FF3E0EFA0CF021EA0001EF
:101CA00099400EFA03FE22EA0E0241EA02005DF8B4
:101CB00004FB0023EEE700000649CB6823F4E06351
:101CC0001B041B0C000200F4E0600343024A1A43A9
:101CD000CA60704700ED00E00000FA0510B5044648
:101CE000054BD868C0F30220FFF7C6FF0146204627
:101CF000FFF7B0FF10BD00BF00ED00E008B5FFF733
:101D00009BFF08BDF0B4876D0468664E664DAC421B
:101D100018BFB44242D01835AC423FD01835AC425F
:101D20003CD01835AC4239D01835AC4236D01835D5
:101D3000AC4233D01835AC4230D005F55675AC42C4
:101D40002CD01835AC4229D01835AC4226D01835E5
:101D5000AC4223D01835AC4220D01835AC421DD04F
:101D60001835AC421AD01835AC4217D04F4DAC42A2
:101D700014D01435AC4211D01435AC420ED0143509
:101D8000AC420BD01435AC4208D01435AC4205D06F
:101D90001435AC4202D01435AC4207D1446E856E86
:101DA0006560C46E14B1046F456F656004683D4E94
:101DB0003D4DAC4218BFB44252D01835AC424FD062
:101DC0001835AC424CD01835AC4249D01835AC422D
:101DD00046D01835AC4243D01835AC4240D005F55A
:101DE0005675AC423CD01835AC4239D01835AC42AF
:101DF00036D01835AC4233D01835AC4230D0183517
:101E0000AC422DD01835AC422AD01835AC4227D080
:101E1000264E274DAC4218BFB44211D0254DAC42DE
:101E20000ED01435AC420BD01435AC4208D014356A
:101E3000AC4205D01435AC4202D01435AC4224D1AA
:101E4000C46D04F01F050124AC407C60046863602D
:101E50008368402B20D0036899600368DA6014E03F
:101E6000C46D04F01F0C3F2404FA0CF4BC60056838
:101E70002C6824F480242C60046863608368402B01
:101E800005D0036899600368DA60F0BC70470368A6
:101E90009A600368D960F8E703689A600368D960BC
:101EA000F3E700BF10000240280002400854025827
:101EB0001C5402583054025803682749274A934259
:101EC00018BF8B422FD0183293422CD01832934235
:101ED00029D01832934226D01832934223D0183298
:101EE000934220D0183293421DD002F5567293428D
:101EF00019D01832934216D01832934213D01832A8
:101F0000934210D0183293420DD0183293420AD027
:101F10001832934207D01832934204D023F0FF03C3
:101F20008365806D704710B4D9B210390C4AA2FB9A
:101F30000142C2F302120B4CA25CC2655F2907D9B1
:101F40006FF3090304338365806D5DF8044B7047BC
:101F50006FF309038365F7E7100002402800024091
:101F6000ABAAAAAA0800010883699BB9836A012B5E
:101F70000AD0022B02D00BB100207047C36A13F0C5
:101F8000807F2AD100207047C36AB3F1C07F26D07A
:101F900000207047B3F5005F0AD0836A022B26D970
:101FA000032B26D1C36A13F0807F24D10020704711
:101FB000836A032B03D8DFE803F01404140A00201B
:101FC0007047C36A13F0807F0DD100207047C36A49
:101FD000B3F1C07F09D00020704701207047012075
:101FE0007047012070470120704701207047012091
:101FF00070470020704701207047000003682149A6
:10200000214A934218BF8B4227D01432934224D0E6
:102010001432934221D0143293421ED01432934290
:102020001BD01432934218D01432934215D0DAB236
:10203000103A1649A1FB0212120915491944A829A0
:102040001ED9144B13449B000366134B436602F0E6
:102050001F020123934083667047DBB2083B0F4A9F
:10206000A2FB03230E4A02EB1312920002660D4AF2
:102070004266C3F30413012202FA03F38366704736
:102080000832DEE7085402581C540258ABAAAAAA28
:10209000F0FBFDBF0082001080080240CDCCCCCC0C
:1020A000009600168058025801794A1E072A2BD83C
:1020B00030B40368154D164CA34218BFAB4218D07C
:1020C0001434A34215D01434A34212D01434A342C2
:1020D0000FD01434A3420CD01434A34209D01434CA
:1020E000A34206D00B4B0B449B00C3660A4B03670D
:1020F00005E00A4B0B449B00C366094B03670123B1
:102100009340436730BC7047704700BF0854025883
:102110001C5402583F820010400902403F960016AE
:102120004059025870B50446FFF780FD002C00F0BE
:10213000B781054623685349534A934218BF8B42DF
:102140000CBF0121002150D0183293424DD01832DB
:1021500093424AD01832934247D01832934244D027
:102160001832934241D0183293423ED002F5567253
:1021700093423AD01832934237D01832934234D037
:102180001832934231D0183293422ED018329342F3
:102190002BD01832934228D01832934225D03B4995
:1021A0003B4A934218BF8B4200F03281394A934236
:1021B00000F02E811432934200F02A8114329342AF
:1021C00000F026811432934200F0228114329342AF
:1021D00000F01E811432934200F01A81402363659F
:1021E000032384F8353001204AE0022284F83520A8
:1021F000002284F8342079BB274A93422CD018322D
:10220000934229D01832934226D01832934223D0D9
:102210001832934220D0183293421DD002F55672E4
:10222000934219D01832934216D01832934213D0E9
:102230001832934210D0183293420DD01832934284
:102240000AD01832934207D01832934204D01A6849
:1022500022F001021A6003E01A6822F001021A60FB
:1022600023681A6812F0010F18D0FFF7DFFC431B38
:10227000052BF5D920236365032384F8353001202D
:1022800070BD00BF100002402800024008540258F0
:102290001C54025830540258400002401A688149C8
:1022A0001140A268E068024320690243606902436A
:1022B000A0690243E0690243206A02430A43616A5B
:1022C000042900F090806168522900F296803F292D
:1022D000C0F08E803F39744820FA01F111F0010FEF
:1022E00001D042F480121A602668756925F007054E
:1022F000636A1D43042B08D1A36A1D43E36A23B11B
:102300002046FFF731FE00287CD175612046FFF79B
:10231000D3FDE36D03F01F023F23934083602368E6
:102320006249634A934218BF8B4242D018329342AB
:102330003FD0183293423CD01832934239D01832F1
:10234000934236D01832934233D01832934230D071
:1023500002F5567293422CD01832934229D018328B
:10236000934226D01832934223D01832934220D081
:10237000183293421DD0183293421AD01832934229
:1023800017D04C4A934214D01432934211D01432D5
:1023900093420ED0143293420BD01432934208D0A1
:1023A0001432934205D01432934202D01432934235
:1023B00013D12046FFF722FEA368802B63D0236E43
:1023C00022791A60636EA26E5A606368013B072B24
:1023D0005CD90023E36623676367002060650123FF
:1023E00084F835304CE7E16A206B01430A436AE721
:1023F000293905293FF677AF73E7743903293FF68A
:1024000072AF6EE740236365012084F8350037E73B
:10241000022284F83520002284F8342019686FF3F2
:102420001011A268402A2CD0802A27D00022E06810
:1024300042EAD002206942EAD002606942EAD00250
:10244000A06942EAD002E06942EAD002206A42EA88
:1024500010120A431A602268174B1344174AA2FB52
:1024600003231B099B00E3652046FFF725FDE26D72
:1024700002F01F0101228A40426050E74FF480427F
:10248000D5E71022D3E70023636098E72046FFF7E3
:102490000BFEE36E00221A60236F626F5A609CE7A6
:1024A0000120EDE63F8010FE0F030F0010000240F8
:1024B0002800024008540258F8ABFDA7CDCCCCCC84
:1024C000002800F03E8170B5044690F834000128E1
:1024D00000F03981012084F8340094F83500C0B24E
:1024E000012807D04FF400636365002384F834307B
:1024F000012070BD022084F835000020606520684E
:10250000924E934DA84218BFB0422FD01835A84222
:102510002CD01835A84229D01835A84226D0183515
:10252000A84223D01835A84220D01835A8421DD083
:1025300005F55675A84219D01835A84216D0183599
:10254000A84213D01835A84210D01835A8420DD093
:102550001835A8420AD01835A84207D01835A84225
:1025600004D0056825F00105056003E0056825F045
:10257000010505602046FFF7C5FB23687349744ACF
:10258000934218BF8B4238D01832934235D018325C
:10259000934232D0183293422FD0183293422CD02B
:1025A0001832934229D01832934226D002F556723F
:1025B000934222D0183293421FD0183293421CD03B
:1025C0001832934219D01832934216D018329342DF
:1025D00013D01832934210D0183293420DD01A689B
:1025E00022F00E0242F00A021A60236C93B12268B4
:1025F000136843F0040313600CE01A6822F01E0213
:1026000042F016021A60236C23B12268136843F06B
:102610000803136023684D494D4A934218BF8B420B
:1026200042D0183293423FD0183293423CD01832F5
:10263000934239D01832934236D01832934233D075
:102640001832934230D002F5567293422CD0183291
:10265000934229D01832934226D01832934223D085
:102660001832934220D0183293421DD01832934230
:102670001AD01832934217D0364A934214D01432EB
:10268000934211D0143293420ED0143293420BD0A5
:102690001432934208D01432934205D0143293423C
:1026A00002D0143293420ED1236E1A6812F4803F86
:1026B00003D01A6842F480721A60E36E1BB11A6884
:1026C00042F480721A6023682049214A934218BF5D
:1026D0008B4230D0183293422DD0183293422AD0F8
:1026E0001832934227D01832934224D018329342A2
:1026F00021D0183293421ED002F5567293421AD05E
:102700001832934217D01832934214D018329342A1
:1027100011D0183293420ED0183293420BD0183297
:10272000934208D01832934205D01A6842F0010251
:102730001A600020DDE61A6842F001021A600020EB
:10274000D7E6012070470220D3E600BF1000024008
:10275000280002400854025870B50446FFF766FA94
:10276000002C00F09181054694F83530DBB2022B45
:1027700006D080236365002384F83430012070BDC7
:1027800023688C498C4A934218BF8B4230D0183250
:1027900093422DD0183293422AD01832934227D038
:1027A0001832934224D01832934221D018329342E7
:1027B0001ED002F5567293421AD01832934217D0A7
:1027C0001832934214D01832934211D018329342E7
:1027D0000ED0183293420BD01832934208D01832E0
:1027E000934205D01A6822F00E021A60266809E0AA
:1027F0001A6822F01E021A602268536923F08003CF
:102800005361266823686B496B4A934218BF8B4219
:1028100042D0183293423FD0183293423CD0183203
:10282000934239D01832934236D01832934233D083
:102830001832934230D002F5567293422CD018329F
:10284000934229D01832934226D01832934223D093
:102850001832934220D0183293421DD0183293423E
:102860001AD01832934217D0544A934214D01432DB
:10287000934211D0143293420ED0143293420BD0B3
:102880001432934208D01432934205D0143293424A
:1028900002D01432934204D1226E136823F4807361
:1028A000136023684349444A934218BF8B422FD098
:1028B000183293422CD01832934229D018329342C6
:1028C00026D01832934223D01832934220D01832A7
:1028D00093421DD002F55672934219D0183293429A
:1028E00016D01832934213D01832934210D01832B7
:1028F00093420DD0183293420AD01832934207D037
:102900001832934204D01A6822F001021A6003E0E0
:102910001A6822F001021A60336813F0010F0ED01A
:10292000FFF784F9431B052BF6D9202363650323A6
:1029300084F83530002384F8343001201FE7236801
:102940001C491D4A934218BF8B4239D0183293421A
:1029500036D01832934233D01832934230D01832E6
:1029600093422DD0183293422AD01832934227D066
:1029700002F55672934223D01832934220D0183277
:1029800093421DD0183293421AD01832934217D076
:102990001832934214D01832934211D01832934215
:1029A0000ED0A16DE36D03F01F02012393404B6035
:1029B0000DE000BF100002402800024008540258F9
:1029C000A16DE36D03F01F023F2393408B602368EA
:1029D0002E492F4A934218BF8B4242D0183293425D
:1029E0003FD0183293423CD01832934239D018323B
:1029F000934236D01832934233D01832934230D0BB
:102A000002F5567293422CD01832934229D01832D4
:102A1000934226D01832934223D01832934220D0CA
:102A2000183293421DD0183293421AD01832934272
:102A300017D0184A934214D01432934211D0143252
:102A400093420ED0143293420BD01432934208D0EA
:102A50001432934205D01432934202D0143293427E
:102A60000BD1636EA26E5A60E36E33B11A6822F422
:102A700080721A60236F626F5A60012384F83530C8
:102A8000002084F834007AE6012078E61000024045
:102A90002800024008540258002800F0288108B598
:102AA000024690F83530DBB2022B03D08023436519
:102AB000012008BD0368904890498B4218BF8342AB
:102AC0000CBF0120002065D018318B4262D0183134
:102AD0008B425FD018318B425CD018318B4259D079
:102AE00018318B4256D018318B4253D001F55671B4
:102AF0008B424FD018318B424CD018318B4249D089
:102B000018318B4246D018318B4243D018318B425A
:102B100040D018318B423DD018318B423AD01968E1
:102B200021F00E0119601368734874498B4218BF75
:102B300083426AD072498B4267D018318B4264D08D
:102B400018318B4261D018318B425ED018318B42E4
:102B50005BD018318B4258D001F556718B4254D05E
:102B600018318B4251D018318B424ED018318B42E4
:102B70004BD018318B4248D018318B4245D0183198
:102B80008B4242D018318B423FD0196821F00101AD
:102B900019603EE0042182F8351080BB584A934208
:102BA0002DD0183293422AD01832934227D01832AF
:102BB000934224D01832934221D0183293421ED02F
:102BC00002F5567293421AD01832934217D0183237
:102BD000934214D01832934211D0183293420ED03F
:102BE000183293420BD01832934208D018329342D5
:102BF00005D01A6822F001021A60002059E71A680D
:102C000022F001021A60002053E7196821F0010147
:102C100019601368384839498B4218BF834242D043
:102C200018318B423FD018318B423CD018318B4247
:102C300039D018318B4236D018318B4233D018310D
:102C40008B4230D001F556718B422CD018318B421B
:102C500029D018318B4226D018318B4223D018311D
:102C60008B4220D018318B421DD018318B421AD0A4
:102C700018318B4217D023498B4214D014318B4228
:102C800011D014318B420ED014318B420BD0143141
:102C90008B4208D014318B4205D014318B4202D0C4
:102CA00014318B4217D1116E0B6823F480730B60C3
:102CB000906DD36D03F01F0101238B404360536E71
:102CC000916E5960D36E33B1196821F48071196027
:102CD000136F516F5960012382F83530002382F859
:102CE0003430136D2BB1104698470020E1E60120E7
:102CF00070470020DDE600BF1000024028000240BF
:102D00004000024008540258F0B583B00446002346
:102D100001937D4B1D687D4BA3FB0535AD0A876D87
:102D20003E68D7F800C0036879497A48834218BFE3
:102D30008B420CBF0120002061D0774A93425ED0C5
:102D4000183293425BD01832934258D018329342D3
:102D500055D01832934252D0183293424FD002F5D8
:102D6000567293424BD01832934248D01832934255
:102D700045D01832934242D0183293423FD0183295
:102D800093423CD01832934239D01832934236D015
:102D90006249634A934218BF8B4212D0614A934200
:102DA0000FD0143293420CD01432934209D0143213
:102DB000934206D01432934203D01432934240F02F
:102DC00061821A68E16D01F01F010420884010EA59
:102DD0000C0F00F0A78212F0040F00F0A3827860BD
:102DE00012F4004F00F05A8212F4803F40F05082FB
:102DF000A36C002B00F046822046984742E2E26D29
:102E000002F01F0108228A40324241D070BB424A80
:102E100093422BD01832934228D01832934225D0B7
:102E20001832934222D0183293421FD01832934264
:102E30001CD002F55672934218D01832934215D026
:102E40001832934212D0183293420FD01832934264
:102E50000CD01832934209D01832934206D018325F
:102E6000934203D01A68C2F3C00202E01A68C2F3A8
:102E700080026AB11A6822F004021A60E36D03F05E
:102E80001F0208239340BB60636D43F00103636539
:102E9000E26D02F01F0226FA02F313F0010F47D091
:102EA00023681B481B498B4218BF83423CD0183112
:102EB0008B4239D018318B4236D018318B4233D007
:102EC00018318B4230D018318B422DD018318B42C3
:102ED0002AD001F556718B4226D018318B4223D06F
:102EE00018318B4220D018318B421DD018318B42C3
:102EF0001AD018318B4217D018318B4214D01831A8
:102F00008B4211D01B6813E014000024B5814E1BC6
:102F100010000240280002404000024008540258BD
:102F20001C540258305402585B6913F0800F3BD197
:102F3000E36D03F01F03042202FA03F333423FD090
:102F40002268964896498A4218BF824234D0183186
:102F50008A4231D018318A422ED018318A422BD081
:102F600018318A4228D018318A4225D018318A4235
:102F700022D001F556718A421ED018318A421BD0E8
:102F800018318A4218D018318A4215D018318A4235
:102F900012D018318A420FD018318A420CD0183121
:102FA0008A4209D013680BE001239340BB60636D34
:102FB00043F002036365BBE7126812F0020F3DD1D4
:102FC000E36D03F01F03102202FA03F333425FD0D4
:102FD0002268724872498A4218BF824234D018313E
:102FE0008A4231D018318A422ED018318A422BD0F1
:102FF00018318A4228D018318A4225D018318A42A5
:1030000022D001F556718A421ED018318A421BD057
:1030100018318A4218D018318A4215D018318A42A4
:1030200012D018318A420FD018318A420CD0183190
:103030008A4209D01268C2F3800208E0BB60636D67
:1030400043F004036365BBE71268C2F3C002FAB140
:10305000BB6023681A6812F4802F0DD01B6813F42C
:10306000002F04D1236C9BB12046984710E0A36C3D
:1030700073B1204698470BE01A6812F4807F03D1A1
:103080001A6822F008021A60236C0BB12046984798
:10309000E36D03F01F03202202FA03F3334200F032
:1030A000938022683D483E498A4218BF82422ED012
:1030B00018318A422BD018318A4228D018318A42DE
:1030C00025D018318A4222D018318A421FD01831B7
:1030D0008A421CD001F556718A4218D018318A42B2
:1030E00015D018318A4212D018318A420FD01831C7
:1030F0008A420CD018318A4209D018318A4206D04F
:1031000018318A4203D01268C2F3400202E012680A
:10311000C2F30012002A57D0BB6094F83530DBB2FE
:10312000042B0ED023681A6812F4802F3AD01B6843
:1031300013F4002F2DD1636C002B45D02046984707
:1031400042E02268136823F0160313602268536973
:1031500023F080035361236CBBB12268136823F012
:1031600008031360E36D03F01F023F239340BB602D
:10317000012384F83530002384F83430236D002B8C
:1031800000F08080204698477CE0A36C002BE4D1BF
:10319000E8E7E36BC3B12046984715E01000024012
:1031A000280002401A6812F4807F09D11A6822F0C0
:1031B00010021A60012384F83530002384F834307B
:1031C000E36B0BB120469847636D002B5AD0636DBB
:1031D00013F0010F52D0042384F835302368964948
:1031E000964A934218BF8B422FD0183293422CD06C
:1031F0001832934229D01832934226D01832934283
:1032000023D01832934220D0183293421DD002F5B9
:103210005672934219D01832934216D01832934204
:1032200013D01832934210D0183293420DD0183276
:1032300093420AD01832934207D01832934204D0F6
:103240001A6822F001021A6003E01A6822F00102F3
:103250001A60019B01330193AB4204D823681B68B9
:1032600013F0010FF5D123681B6813F0010F0BD089
:10327000032384F83530002384F83430E36C0BB139
:103280002046984703B0F0BD012384F83530F2E7BB
:10329000236C002BF6D020469847F3E712F0200F5E
:1032A0003AD123686449654A934218BF8B422FD0B4
:1032B000183293422CD01832934229D018329342BC
:1032C00026D01832934223D01832934220D018329D
:1032D00093421DD002F55672934219D01832934290
:1032E00016D01832934213D01832934210D01832AD
:1032F00093420DD0183293420AD01832934207D02D
:103300001832934204D01A6822F004021A6003E0D3
:103310001A6822F008021A60236C002BB2D02046F3
:103320009847AFE70220884010EA0C0F60D012F0F7
:10333000020F5DD0786012F4004F0ED012F4803F7F
:1033400005D1636C002B9DD0204698479AE7E36B2C
:10335000002B97D02046984794E712F0200F40D1D9
:1033600023683549354A934218BF8B422FD0183213
:1033700093422CD01832934229D01832934226D04F
:103380001832934223D01832934220D018329342FD
:103390001DD002F55672934219D01832934216D0BE
:1033A0001832934213D01832934210D018329342FD
:1033B0000DD0183293420AD01832934207D01832F7
:1033C000934204D01A6822F00A021A6003E01A68D5
:1033D00022F014021A60012384F83530002384F8A7
:1033E0003430E36B002B3FF44DAF2046984749E75C
:1033F000082000FA01F111EA0C0F3FF443AF12F07C
:10340000080F3FF43FAF1A6822F00E021A60E36D16
:1034100003F01F03012202FA03F37B60626584F864
:103420003520002384F83430E36C002B3FF42AAFBE
:103430002046984726E700BF1000024028000240BF
:10344000F0B583B000236BE085685E000324B440D0
:1034500025EA0405CC68B4402C438460456825EA1D
:103460000C054C68C4F300149C402C43446069E094
:10347000DD08083550F8254003F0070C4FEA8C0CA6
:103480004FF00F0E0EFA0CFE24EA0E0E0C6904FA31
:103490000CF444EA0E0440F825406BE0092400E0F7
:1034A000002404FA0EF42C430CF1020C664D45F88E
:1034B0002C404FF0B0442568D44325EA02064F68FB
:1034C00017F4801F01D042EA05064FF0B0452E6088
:1034D0006D6804EA05064F6817F4001F01D042EA40
:1034E00005064FF0B0456E60D5F8845004EA050635
:1034F0004F6817F4003F01D042EA05064FF0B0458F
:10350000C5F88460D5F880502C404E6816F4803F92
:1035100001D042EA05044FF0B042C2F880400133C6
:103520000A6832FA03F400F08C804FF0010C0CFAB8
:1035300003FC1CEA0202F2D04C6804F00304013CD4
:10354000012C81D94C6804F00304032C0CD0C4680E
:103550005D004FF0030C0CFA05FC24EA0C0C8C689F
:10356000AC4044EA0C04C4604C6804F00304022C30
:103570003FF47EAF04684FEA430E4FF0030C0CFAA1
:103580000EFC24EA0C0C4C6804F0030404FA0EF45C
:1035900044EA0C0404604C6814F4403FBFD02B4C48
:1035A000D4F8F45045F00205C4F8F450D4F8F440CF
:1035B00004F002040194019C4FEA930C0CF1020503
:1035C000214C54F8255003F0030E4FEA8E0E0F24C1
:1035D00004FA0EF425EA04051D4CA0423FF460AF46
:1035E00004F58064A0421ED004F58064A0421CD083
:1035F00004F58064A0421AD004F58064A04218D07B
:1036000004F58064A04216D004F58064A04214D072
:1036100004F58064A04212D004F50064A0423FF497
:103620003DAF0A243DE701243BE7022439E70324A8
:1036300037E7042435E7052433E7062431E7072478
:103640002FE703B0F0BD00BF00040058004402584B
:10365000000002580AB18161704709048161704716
:10366000134BDB6813F0040F07D1114BDB6803F039
:10367000070383421AD00120704710B50C4AD36863
:1036800023F007030343D360FEF7D0FA0446084B48
:103690005B6813F4005F07D1FEF7C8FA001BB0F5B2
:1036A0007A7FF4D9012000E0002010BD002070478F
:1036B00000480258002800F0D58238B50446036857
:1036C00013F0010F25D0A04A136903F03803926A62
:1036D000102B15D0182B0FD06368B3F5803F3FD067
:1036E000002B53D1984B1A6822F480321A601A6862
:1036F00022F480221A6038E002F00302022AEBD1A1
:10370000914B1B6813F4003F03D06368002B00F05B
:10371000AB82236813F0020F00F088808A4A136995
:10372000926A13F038035AD0182B55D0E368002B57
:1037300000F0A98084490A6822F0190213430B6043
:10374000FEF774FA0546804B1B6813F0040F40F037
:103750009180FEF76BFA401B0228F4D903208AE21D
:10376000794A136843F48033136063682BB3FEF720
:103770005DFA0546744B1B6813F4003FC9D1FEF790
:1037800055FA401B6428F5D9032074E2B3F5A02F45
:1037900009D06D4B1A6822F480321A601A6822F43C
:1037A00080221A60E1E7684B1A6842F480221A60AE
:1037B0001A6842F480321A60D7E7FEF737FA0546F6
:1037C000614B1B6813F4003FA3D0FEF72FFA401B98
:1037D0006428F5D903204EE212F0030FA6D15A4B0C
:1037E0001B6813F0040F03D0E368002B00F03E8247
:1037F000554A136823F01903E1680B431360FEF781
:1038000015FA0546504B1B6813F0040F06D1FEF75E
:103810000DFA401B0228F5D903202CE24A4A5368CE
:1038200023F0FE43216943EA01635360236813F0E8
:10383000100F51D0444A136903F03803926A082BE1
:1038400039D0182B33D0E369002B69D03E4A136876
:1038500043F080031360FEF7E9F905463A4B1B6815
:1038600013F4807F53D1FEF7E1F9401B0228F5D90C
:10387000032000E2344A536823F0FE43216943EAFF
:1038800001635360D2E7304A136823F001031360E9
:10389000FEF7CCF905462C4B1B6813F0040FC5D07E
:1038A000FEF7C4F9401B0228F5D90320E3E102F03A
:1038B0000302012AC7D1244B1B6813F4807F03D075
:1038C000E369802B40F0D4811F4AD36823F07C53F6
:1038D000216A43EA0163D360236813F0080F49D0DB
:1038E0006369002B32D0184A536F43F001035367CA
:1038F000FEF79CF90546144B5B6F13F0020F39D1AC
:10390000FEF794F9401B0228F5D90320B3E10E4AD3
:10391000D36823F07C53216A43EA0163D360DBE779
:10392000094A136823F080031360FEF77FF9054608
:10393000054B1B6813F4807FCED0FEF777F9401B50
:103940000228F5D9032096E1004402589D4A536F9E
:1039500023F001035367FEF769F90546994B5B6F46
:1039600013F0020F06D0FEF761F9401B0228F5D9CB
:10397000032080E1236813F0200F29D0A3699BB1B5
:10398000904A136843F480531360FEF74FF90546DD
:103990008C4B1B6813F4005F1AD1FEF747F9401BEC
:1039A0000228F5D9032066E1864A136823F4805380
:1039B0001360FEF73BF90546824B1B6813F4005F6A
:1039C00006D0FEF733F9401B0228F5D9032052E157
:1039D000236813F0040F21D1636A002B00F04A81A1
:1039E000784A126902F03802182A00F0F180022B9E
:1039F00075D0744A136823F080731360FEF716F9CC
:103A00000446704B1B6813F0007F00F0D880FEF76F
:103A10000DF9001B0228F4D903202CE16A4A13682F
:103A200043F480731360FEF701F90546664B1B688B
:103A300013F4807F06D1FEF7F9F8401B6428F5D90E
:103A4000032018E1A368012B0AD00BBB5D4B1A6F52
:103A500022F001021A671A6F22F004021A6704E0CA
:103A6000584A136F43F001031367A36833B3FEF79B
:103A7000DDF80546534B1B6F13F0020FACD1FEF778
:103A8000D5F8401B41F288339842F3D90320F2E085
:103A9000052B09D04B4B1A6F22F001021A671A6FDF
:103AA00022F004021A67E0E7464B1A6F42F0040264
:103AB0001A671A6F42F001021A67D6E7FEF7B6F8E6
:103AC0000546404B1B6F13F0020F85D0FEF7AEF892
:103AD000401B41F288339842F3D90320CBE0394AA6
:103AE000136823F080731360FEF7A0F80546354B8A
:103AF0001B6813F0007F06D0FEF798F8401B0228E1
:103B0000F5D90320B7E02F4B996A304A0A40A16AE1
:103B1000E06A41EA00110A439A62226B013AC2F359
:103B20000802616B0139490289B20A43A16B01396C
:103B3000090401F4FE010A43E16B0139090601F0B1
:103B4000FE410A431A63DA6A22F00102DA625A6B12
:103B50006FF3CF02A16C42EAC1025A63DA6A22F023
:103B60000C02216C0A43DA62DA6A22F00202616C0A
:103B70000A43DA62DA6A42F48032DA62DA6A42F4DA
:103B80000032DA62DA6A42F48022DA62DA6A42F0F9
:103B90000102DA621A6842F080721A60FEF746F893
:103BA0000446084B1B6813F0007F06D1FEF73EF871
:103BB000001B0228F5D903205DE000205BE0002017
:103BC00059E000BF00440258004802580CFCFFFFB7
:103BD00030498A6A086B012B4ED002F00303A16AB8
:103BE0008B424BD1C2F30512E36A9A4248D1C0F32B
:103BF0000802236B013B9A4244D1C0F34622636B17
:103C0000013B9A4240D1C0F30642A36B013B9A426A
:103C10003CD1C0F30660E36B013B984238D11D4BA9
:103C20005B6BC3F3CC03A26C9A4201D1002022E06B
:103C3000184AD36A23F00103D362FDF7F7FF054664
:103C4000FDF7F4FFA842FBD0124A536B6FF3CF038A
:103C5000A16C43EAC1035363D36A43F00103D36207
:103C6000002008E001207047012004E0012002E06C
:103C7000012000E0002038BD0120FCE70120FAE728
:103C80000120F8E70120F6E70120F4E70120F2E740
:103C90000120F0E700440258754B1B6903F038031C
:103CA000102B00F0DE80182B0FD0002B40F0DB80B3
:103CB0006F4B1B6813F0200F00F0D7806C4B1B6814
:103CC000C3F3C1036B48D840704710B4684B9A6A7D
:103CD00002F003029C6AC4F30510D96A01F00101E5
:103CE0005B6BC3F3CC0301FB03F307EE903AF8EEF2
:103CF000677A14F47C7F77D0012A4AD0022A76D0E2
:103D0000002A40F091805A4B1B6813F0200F23D0FB
:103D100057490A68C2F3C102564BD34007EE103A26
:103D2000F8EE476A07EE100AB8EE476A86EE867A22
:103D30000B6BC3F3080306EE903AF8EE666A9FED4C
:103D40004E6A67EE867A76EEA77AF7EE006A77EE2D
:103D5000A67A27EE277A38E007EE100AF8EE476ACF
:103D60009FED466A86EE267A414B1B6BC3F3080330
:103D700006EE903AF8EE666A9FED3F6A67EE867A45
:103D800076EEA77AF7EE006A77EEA67A27EE277A24
:103D90001BE007EE100AF8EE476A9FED396A86EEDF
:103DA000267A334B1B6BC3F3080306EE903AF8EE0A
:103DB000666A9FED316A67EE867A76EEA77AF7EE4D
:103DC000006A77EEA67A27EE277A294B1B6BC3F39E
:103DD0004623013307EE903AF8EE677AC7EE276A7A
:103DE000FCEEE67A17EE900A5DF8044B704707EE9A
:103DF000100AF8EE476A9FED236A86EE267A1C4B7E
:103E00001B6BC3F3080306EE903AF8EE666A9FED6B
:103E10001A6A67EE867A76EEA77AF7EE006A77EE90
:103E2000A67A27EE277AD0E707EE100AF8EE476A5F
:103E30009FED136A86EE267A0D4B1B6BC3F30803C6
:103E400006EE903AF8EE666A9FED0B6A67EE867AA8
:103E500076EEA77AF7EE006A77EEA67A27EE277A53
:103E6000B3E709487047094870470248704700BFE8
:103E7000004402580090D003000000390024744C24
:103E80000024744A001BB74B00366E0100093D0048
:103E9000002800F0328170B50D4604469B4B1B682C
:103EA00003F00F038B420BD2984A136823F00F03E1
:103EB0000B431360136803F00F038B4240F01F8124
:103EC000236813F0040F0CD02269914B9B6903F017
:103ED00070039A4205D98E498B6923F070031A4307
:103EE0008A61236813F0080F0CD06269884BDB6984
:103EF00003F070039A4205D98549CB6923F070031A
:103F00001A43CA61236813F0100F0CD0A269804BCA
:103F1000DB6903F4E0639A4205D97D49CB6923F458
:103F2000E0631A43CA61236813F0200F0CD0E269E2
:103F3000774B1B6A03F070039A4205D974490B6AE8
:103F400023F070031A430A62236813F0020F0CD0A7
:103F5000E2686F4B9B6903F00F039A4205D96C49E5
:103F60008B6923F00F031A438A61236813F0010F52
:103F700041D0674A936923F47063A1680B4393614E
:103F80006368022B0AD0032B27D0012B2CD0604A68
:103F9000126812F0040F06D10120ADE0126812F48D
:103FA000003F00F0AE805A490A6922F0070213432D
:103FB0000B61FDF73BFE0646554B1B6903F03803CA
:103FC0006268B3EBC20F16D0FDF730FE801B41F2E2
:103FD00088339842F0D903208EE04D4A126812F0DF
:103FE000007FE0D1012087E0494A126812F4807F07
:103FF000D9D1012080E0236813F0020F0CD0E268D1
:10400000434B9B6903F00F039A4205D240498B69E9
:1040100023F00F031A438A613C4B1B6803F00F0324
:10402000AB420AD9394A136823F00F032B431360BC
:10403000136803F00F03AB4265D1236813F0040F3C
:104040000CD02269324B9B6903F070039A4205D26F
:104050002F498B6923F070031A438A61236813F098
:10406000080F0CD062692A4BDB6903F070039A4297
:1040700005D22749CB6923F070031A43CA6123682C
:1040800013F0100F0CD0A269214BDB6903F4E0633D
:104090009A4205D21E49CB6923F4E0631A43CA61F0
:1040A000236813F0200F0CD0E269194B1B6A03F050
:1040B00070039A4205D216490B6A23F070031A4323
:1040C0000A62FFF7E9FD12498B69C3F30323114A22
:1040D000D35C03F01F03D8408B6903F00F03D35C5C
:1040E00003F01F0320FA03F30B4A13600B4B186015
:1040F0000B4B1868FDF7C6FA70BD01207047012010
:10410000FAE70120F8E70120F6E700BF002000529F
:1041100000440258F8FF0008100000241400002496
:104120001C00002408B5FFF7B7FD0B4A9369C3F3E1
:1041300003230A49CB5C03F01F0320FA03F39269BF
:1041400002F00F02885C00F01F0023FA00F0044A1E
:104150001060044A136008BD00440258F8FF0008CC
:10416000100000241400002408B5FFF7DBFF054B06
:10417000DB69C3F30213044AD35C03F01F03D84086
:1041800008BD00BF00440258F8FF000808B5FFF75B
:10419000C9FF054BDB69C3F30223044AD35C03F078
:1041A0001F03D84008BD00BF00440258F8FF0008B4
:1041B0003F230360114B1A6902F0070242609A69BB
:1041C00002F4706282609A6902F00F02C2609A691A
:1041D00002F070020261DA6902F070024261DA698B
:1041E00002F4E06282611B6A03F07003C361044B56
:1041F0001B6803F00F030B60704700BF00440258B8
:1042000000200052404B9B6A03F00303032B79D03C
:1042100070B505460E463C4A136823F08063136070
:10422000FDF704FD0446384B1B6813F0006F06D001
:10423000FDF7FCFC031B022BF5D9032070BD324BAC
:104240009A6A22F47C32296842EA01329A626A68E8
:10425000013AC2F30802A9680139490289B20A4346
:10426000E9680139090401F4FE010A4329690139A9
:10427000090601F0FE410A439A63DA6A22F0C0029D
:1042800069690A43DA62DA6A22F02002A9690A43FC
:10429000DA62DA6A22F01002DA62DA6B6FF3CF02C6
:1042A000E96942EAC102DA63DA6A42F01002DA62CC
:1042B000C6B91A46DB6A43F40023D362124A136874
:1042C00043F080631360FDF7B1FC04460E4B1B689E
:1042D00013F0006F14D1FDF7A9FC001B0228F5D9DB
:1042E0000320ABE7012E05D0074AD36A43F400133D
:1042F000D362E3E7044AD36A43F48013D362DDE771
:1043000000209BE70120704700440258404B9B6A05
:1043100003F00303032B79D070B505460E463C4AE3
:10432000136823F080531360FDF780FC0446384B7C
:104330001B6813F0005F06D0FDF778FC031B022B0F
:10434000F5D9032070BD324B9A6A22F07C7229683D
:1043500042EA01529A626A68013AC2F30802A96805
:104360000139490289B20A43E9680139090401F4B3
:10437000FE010A4329690139090601F0FE410A4399
:104380001A64DA6A22F4406269690A43DA62DA6A14
:1043900022F40072A9690A43DA62DA6A22F48072AE
:1043A000DA625A6C6FF3CF02E96942EAC1025A64D9
:1043B000DA6A42F48072DA62C6B91A46DB6A43F4FA
:1043C0008003D362124A136843F080531360FDF7F1
:1043D0002DFC04460E4B1B6813F0005F14D1FDF753
:1043E00025FC001B0228F5D90320ABE7012E05D0E0
:1043F000074AD36A43F08073D362E3E7044AD36A7F
:1044000043F40003D362DDE700209BE701207047FF
:1044100000440258F8B50446036813F0006F2FD02B
:10442000436EB3F5001F25D015D8E3B1B3F5801F57
:104430000ED102210830FFF7E5FE054675BB934A11
:10444000136D23F44013616E0B431365002619E0CE
:104450000126354616E0B3F5401F01D10025EEE7F1
:10446000012635460EE0894AD36A43F40033D3620D
:104470000025E4E702212830FFF748FF0546DDE785
:1044800000263546236813F4807F29D0A36D042BC2
:1044900022D8DFE803F005131A0A0A002E46F1E7D6
:1044A0007A4AD36A43F40033D362C5B9774A136DAD
:1044B00023F00703A16D0B43136511E0002104F104
:1044C0000800FFF79FFE0546EFE7002104F12800F2
:1044D000FFF71CFF0546E8E70126354600E02E46BB
:1044E000236813F4806F2DD0D4F8A430B3F5800F77
:1044F0003DD00DD8C3B1B3F5001F06D1002104F1A2
:104500000800FFF77FFE054613E00126354619E057
:10451000B3F5000F0DD0B3F5200F0AD0B3F5C00FDF
:1045200007D0012635460DE0584AD36A43F40033DC
:10453000D3621DBB554A936D23F46003D4F8A410D5
:104540000B439365236813F4006F37D0D4F8A83079
:10455000B3F1007F5ED016D80BB3B3F1807F0FD1DB
:10456000002104F10800FFF74DFE05461CE0002184
:1045700004F12800FFF7CAFE0546DAE72E46E1E718
:10458000012635461AE0B3F1806F0DD0B3F1A06F6C
:104590000AD0B3F1407F07D0012635460EE03B4AF2
:1045A000D36A43F40033D362002D3AD1374A936D76
:1045B00023F0E063D4F8A8100B439365236813F04D
:1045C000007F13D0E36C202B35D02FD833B1102BC4
:1045D00029D12E4AD36A43F40033D36295BB2B4AC8
:1045E000D36C23F03003E16C0B43D364236813F4E2
:1045F000805F4ED0E36DB3F5005F3FD027D87BB32B
:10460000B3F5805F20D1002104F10800FFF7FAFD27
:1046100005462AE0002104F12800FFF777FE054651
:10462000C2E72E46CAE701263546DFE7302BD5D054
:1046300001263546DAE7022104F10800FFF7E2FD22
:104640000546CBE72E46D1E70126354621E0B3F5F6
:10465000405F0AD0B3F5804F07D00126354618E0F9
:104660000A4AD36A43F40033D3628DB9074A136D03
:1046700023F4E043E16D0B4313650AE0002104F1EC
:104680002800FFF743FE0546EFE700BF004402584D
:104690002E46236813F4005F17D0236EB3F5003F56
:1046A0004FD042D843B1B3F5803F3BD1012104F153
:1046B0000800FFF7A7FD0546002D49D1924A136D6A
:1046C00023F4E023216E0B431365236813F4804F1A
:1046D00019D0D4F8AC30B3F1005F4AD03DD843B123
:1046E000B3F1805F36D1012104F10800FFF78AFDA4
:1046F0000546002D44D1844A936D23F0E043D4F85D
:10470000AC100B439365236813F4004F47D0E36E5E
:10471000B3F1805F36D0B3F1005F4BD0BBB301265D
:1047200035463CE001263546CFE7B3F5802FC3D0B0
:10473000B3F5A02FC0D0B3F5403FBDD0012635461C
:10474000C3E7012104F12800FFF7E0FD0546B3E7C8
:104750002E46BAE701263546D5E7B3F1804FC8D0DB
:10476000B3F1A04FC5D0B3F1405FC2D001263546AA
:10477000C9E7012104F12800FFF7C8FD0546B8E7A5
:104780002E46C0E7604AD36A43F40033D362C5B90A
:104790005D4A136D23F04053E16E0B4313652368AC
:1047A00013F0807F1CD0A36C032B44D8DFE803F008
:1047B000100B3C10012104F10800FFF723FD054612
:1047C000E5E72E46EBE7504AD36A43F40033D36261
:1047D000A5BB4D4AD36C23F00303A16C0B43D364F8
:1047E000236813F4800F2BD1236813F0010F00F01E
:1047F000A980A36F282B00F2A380DFE803F091A12A
:10480000A1A1A1A1A1A18BA1A1A1A1A1A1A19AA1B5
:10481000A1A1A1A1A1A191A1A1A1A1A1A1A191A1A8
:10482000A1A1A1A1A1A19100022104F10800FFF71B
:10483000E9FC0546CCE701263546D1E72E46CFE711
:10484000324A136843F480731360FDF7EFF90746AB
:104850002E4B1B6813F4807F05D1FDF7E7F9C01BD1
:104860006428F5D90325002D4AD1274B1B6FD4F8B6
:10487000B020534013F4407F0CD0234B1A6F22F426
:104880004072196F41F480311967196F21F480313A
:1048900019671A67D4F8B030B3F5807F15D08DBB97
:1048A000D4F8B03003F44072B2F5407F1ED0164AFF
:1048B000136923F47C53136113490B6FD4F8B020B0
:1048C000C2F30B0213430B678EE7FDF7AFF9074600
:1048D0000D4B1B6F13F0020FE1D1FDF7A7F9C01BC1
:1048E00041F288339842F3D90325D8E70648026994
:1048F00022F47C52064901EA131313430361DBE7F8
:104900002E4671E72E466FE70044025800480258D1
:10491000CFFFFF00012104F10800FFF773FC0546FB
:10492000E5B9B14A536D23F03803A16F0B435365CA
:1049300008E0012104F12800FFF7E8FC0546EFE755
:1049400001263546236813F0020F17D0636F052B3D
:1049500029D8DFE803F00B05210B0B0B2E46F1E7FE
:10496000012104F10800FFF74DFC0546F5B99E4A08
:10497000536D23F00703616F0B435365236813F0F6
:10498000040F26D0D4F89030052B00F2D680DFE853
:1049900003F0150FCD151515012104F12800FFF7BF
:1049A000B5FC0546E2E701263546E7E72E46E5E792
:1049B000012104F10800FFF725FC0546002D40F019
:1049C000BF80894A936D23F00703D4F890100B43FE
:1049D0009365236813F0200F1DD0D4F88C30B3F109
:1049E000005F00F0C18000F2B0804BB1B3F1805F96
:1049F00040F0A880002104F10800FFF703FC054601
:104A0000002D40F0B880784A536D23F0E043D4F88D
:104A10008C100B435365236813F0400F1DD0D4F85E
:104A20009830B3F5006F00F0BA8000F2A9804BB166
:104A3000B3F5806F40F0A180002104F10800FFF77A
:104A4000E1FB0546002D40F0B180674A936D23F4E9
:104A5000E053D4F898100B439365236813F0800F4C
:104A60001DD0D4F89C30B3F5804F00F0B38000F235
:104A7000A2804BB1B3F5005F40F09A80002104F1B1
:104A80000800FFF7BFFB0546002D40F0AA80564AFC
:104A9000936D23F46043D4F89C100B439365236813
:104AA00013F0080F0DD0D4F88030B3F5805F00F01C
:104AB0009D804D4A536D23F44053D4F880100B432E
:104AC0005365236813F0100F0DD0D4F89430B3F56C
:104AD000807F00F09580444A936D23F44073D4F8AE
:104AE00094100B439365236813F4002F00F09D800E
:104AF000D4F8A030B3F5803F00F08C80B3F5003FD0
:104B000008D0002B40F08D80002104F10800FFF751
:104B100079FB0546002D40F08780334A936D23F4DE
:104B20004033D4F8A0100B4393657EE0012104F1DB
:104B30002800FFF7EBFB054640E70126354648E72E
:104B40002E4646E70126354665E7B3F1804F3FF430
:104B500057AFB3F1A04F3FF453AFB3F1405F3FF411
:104B60004FAF0126354656E7022104F12800FFF732
:104B7000CDFB054644E72E464DE7012635466CE75A
:104B8000B3F5805F3FF45EAFB3F5A05F3FF45AAF7B
:104B9000B3F5406F3FF456AF012635465DE702217D
:104BA00004F12800FFF7B2FB05464BE72E4654E719
:104BB0000126354673E7B3F5004F3FF465AFB3F513
:104BC000204F3FF461AFB3F5C04F3FF45DAF012616
:104BD000354664E7022104F12800FFF797FB0546FC
:104BE00052E72E465BE700BF00440258022104F161
:104BF0002800FFF78BFB00283FF45BAF012658E746
:104C0000022104F12800FFF781FB00283FF463AF85
:104C1000012660E7022104F12800FFF777FB054633
:104C200078E70126354600E02E46236813F4802FEE
:104C300024D0D4F88430B3F5001F14D0B3F5401F4E
:104C400007D0B3F5801F15D17C4AD36A43F40033F3
:104C5000D36295B9794A536D23F44013D4F8841084
:104C60000B4353650AE0012104F12800FFF74EFBD6
:104C70000546EEE70126354600E02E46236813F48C
:104C8000803F06D0236DCBB1B3F5803F24D0012601
:104C90003546236813F0005F27D1236813F4003FE3
:104CA0003DD0E36FB3F5807F2BD027D9B3F5007FDC
:104CB0002CD0B3F5407F29D0012630E05F4AD36A7B
:104CC00043F40033D36275B95C4AD36C23F4803368
:104CD000216D0B43D364DCE7022104F10800FFF7E8
:104CE00091FA0546EFE72E46D3E7022104F12800AA
:104CF000FFF70CFB0028D0D00126CEE733B1012608
:104D00000DE04E4AD36A43F40033D362002D5CD1E8
:104D10004A4A536D23F44073E16F0B435365236894
:104D200013F4801F06D0454A136D23F00043216F12
:104D30000B431365236813F4001F06D03F4A136D1D
:104D400023F08073A16E0B431365236813F0804F2B
:104D500009D03A4B1A6922F400421A611A69D4F850
:104D6000B4100A431A612368002B06DA334AD36C65
:104D700023F04053616D0B43D364236813F4000F99
:104D800007D02E4A536D23F44003D4F888100B4308
:104D90005365636813F0010F19D1636813F0020FB4
:104DA0001ED1636813F0040F23D1636813F0080F5A
:104DB00028D1636813F0100F2DD1636813F0200F12
:104DC00032D106B101263046F8BD2E46A7E70021B4
:104DD00004F10800FFF716FA0028DED00646DCE7EB
:104DE000012104F10800FFF70DFA0028D9D006468A
:104DF000D7E7022104F10800FFF704FA0028D4D015
:104E00000646D2E7002104F12800FFF77FFA0028C8
:104E1000CFD00646CDE7012104F12800FFF776FA4E
:104E20000028CAD00646C8E7022104F12800FFF78F
:104E30006DFA0028C5D00126C5E700BF004402581E
:104E400008B5FFF76FF9054B1B6AC3F30213044A59
:104E5000D35C03F01F03D84008BD00BF00440258D4
:104E6000F8FF000810B4794B9A6A9C6AC4F3053CB9
:104E7000D96AC1F30011DB6BC3F3CC0301FB03F36D
:104E800014F47C3F00F0DD8002F0030207EE903A5C
:104E9000F8EE677A012A4BD0022A00F09880002AA7
:104EA00040F0B280694B1B6813F0200F23D0674994
:104EB0000A68C2F3C102664BD34007EE103AF8EE1F
:104EC000476A07EE10CAB8EE476A86EE867A8B6BA1
:104ED000C3F3080306EE903AF8EE666A9FED5D6A4A
:104EE00067EE867A76EEA77AF7EE006A77EEA67A14
:104EF00027EE277A38E007EE10CAF8EE476A9FEDF2
:104F0000566A86EE267A514B9B6BC3F3080306EE76
:104F1000903AF8EE666A9FED4F6A67EE867A76EE13
:104F2000A77AF7EE006A77EEA67A27EE277A1BE0DB
:104F300007EE10CAF8EE476A9FED486A86EE267AB9
:104F4000424B9B6BC3F3080306EE903AF8EE666A99
:104F50009FED406A67EE867A76EEA77AF7EE006AF2
:104F600077EEA67A27EE277A384A936BC3F3462367
:104F700007EE903AF8EE677AF7EE006A77EEA67AD7
:104F800087EE276ABCEEC66A80ED006A936BC3F3B6
:104F9000064307EE903AF8EE677A77EEA67A87EE48
:104FA000276ABCEEC66A80ED016A936BC3F30663A1
:104FB00007EE903AF8EE677A77EEA67AC7EE276AA0
:104FC000FCEEE66AC0ED026A5DF8044B704707EE3E
:104FD00010CAF8EE476A9FED226A86EE267A1B4BCE
:104FE0009B6BC3F3080306EE903AF8EE666A9FEDFA
:104FF000196A67EE867A76EEA77AF7EE006A77EEA0
:10500000A67A27EE277AAFE707EE10CAF8EE476ACE
:105010009FED126A86EE267A0C4B9B6BC3F3080356
:1050200006EE903AF8EE666A9FED0A6A67EE867AB7
:1050300076EEA77AF7EE006A77EEA67A27EE277A61
:1050400092E70023036043608360BDE70044025899
:105050000090D003000000390024744C0024744AEE
:10506000001BB74B10B4794B9A6A9C6AC4F3055C79
:10507000D96AC1F300215B6CC3F3CC0301FB03F3DA
:1050800014F07C7F00F0DD8002F0030207EE903A1E
:10509000F8EE677A012A4BD0022A00F09880002AA5
:1050A00040F0B280694B1B6813F0200F23D0674992
:1050B0000A68C2F3C102664BD34007EE103AF8EE1D
:1050C000476A07EE10CAB8EE476A86EE867A0B6C1E
:1050D000C3F3080306EE903AF8EE666A9FED5D6A48
:1050E00067EE867A76EEA77AF7EE006A77EEA67A12
:1050F00027EE277A38E007EE10CAF8EE476A9FEDF0
:10510000566A86EE267A514B1B6CC3F3080306EEF3
:10511000903AF8EE666A9FED4F6A67EE867A76EE11
:10512000A77AF7EE006A77EEA67A27EE277A1BE0D9
:1051300007EE10CAF8EE476A9FED486A86EE267AB7
:10514000424B1B6CC3F3080306EE903AF8EE666A16
:105150009FED406A67EE867A76EEA77AF7EE006AF0
:1051600077EEA67A27EE277A384A136CC3F34623E4
:1051700007EE903AF8EE677AF7EE006A77EEA67AD5
:1051800087EE276ABCEEC66A80ED006A136CC3F333
:10519000064307EE903AF8EE677A77EEA67A87EE46
:1051A000276ABCEEC66A80ED016A136CC3F306631E
:1051B00007EE903AF8EE677A77EEA67AC7EE276A9E
:1051C000FCEEE66AC0ED026A5DF8044B704707EE3C
:1051D00010CAF8EE476A9FED226A86EE267A1B4BCC
:1051E0001B6CC3F3080306EE903AF8EE666A9FED77
:1051F000196A67EE867A76EEA77AF7EE006A77EE9E
:10520000A67A27EE277AAFE707EE10CAF8EE476ACC
:105210009FED126A86EE267A0C4B1B6CC3F30803D3
:1052200006EE903AF8EE666A9FED0A6A67EE867AB5
:1052300076EEA77AF7EE006A77EEA67A27EE277A5F
:1052400092E70023036043608360BDE70044025897
:105250000090D003000000390024744C0024744AEC
:10526000001BB74B10B402685369916941F0080103
:10527000916101688A6942F010028A6101680A68D6
:1052800022F001020A6001680C69294A22400A6181
:1052900001688A6822F440428A6090F88120D2B284
:1052A000042A0DD013F0200F0AD0D0F8842042F049
:1052B0008002C0F8842001688A6942F020028A6175
:1052C00090F88120D2B2032A0DD013F0400F0AD0FB
:1052D000D0F8842042F00402C0F8842001688A6972
:1052E00042F040028A6113F4007F0AD0D0F8842093
:1052F00042F00102C0F8842001688A6942F4007219
:105300008A6113F4807F0AD0D0F8843043F0080318
:10531000C0F884300268936943F48073936100237A
:10532000A0F86230A0F86A305DF8044B704700BF07
:1053300090FCFFFFC36B5B09C0680830C00803FB2B
:10534000000070472DE9F84380460F4616461D467B
:10535000DDF8209000E0BDB1D8F800305C6937EA94
:1053600004040CBF01230023B3420AD1FCF75EFC06
:10537000A0EB0900A842EED3B5F1FF3FEBD003202C
:1053800000E00020BDE8F8830320FBE7002800F0E0
:10539000B78070B504460023836205685C4B5D4EA0
:1053A0009D4218BFB54214BF0126002607D0A3F5C1
:1053B00074439D4203D0C3680F2B00F2A3802046A4
:1053C000FFF7B8FF2EB1544B9D4202D0082800F2DF
:1053D0009B804F4A4F4B9D4218BF954203D003F527
:1053E00080639D4202D1102800F2908094F88130B1
:1053F000F3B1022384F881302268136823F001039B
:10540000136023689A6802F4F812A169B1F1806F01
:1054100014D0636813F4800F23D0E368062B20D9DF
:1054200021680B6823F48073206D03430B601DE03B
:1054300084F880302046FCF721F8DAE76168B1F59E
:10544000800F06D00029E4D1A16BB1F1805FE0D1DB
:1054500002E0A06B0028F5D1196841F48051196071
:10546000D7E721680B6823F480730B60E369A16AB6
:105470000B431343E26B1343E16822680B439360D1
:10548000636B626A1343A26B1343A26913432269DD
:10549000134362691343226A134362681343E26C45
:1054A0001343A2681343A26C1343A16D22680B43FC
:1054B000D36063686BB92268936823F4C05343F4E4
:1054C000006393602268936823F4C06343F48063AD
:1054D00093602268136D23F001031365636813F46E
:1054E000800F06D02268D36823F00043616D0B4320
:1054F000D3600020C4F88400012384F8813070BD9B
:10550000012070470120FAE70120F8E70120F6E7C3
:105510000030014000380040003C00402DE9F047D9
:1055200082B004468A4691461D46D0F80080FCF7BA
:105530007DFB94F88160F6B2012E40F04881074669
:10554000B9F1000F18BFBAF1000F00F0418194F8D3
:105550008030012B00F04081012384F88030032348
:1055600084F881300023C4F88430C4F85CA0A4F827
:105570006090A4F862906366A4F86830A4F86A307A
:1055800063672367A368B3F5C02F1CD02268D36874
:1055900023F4C02343F40033D360226853686FF3CD
:1055A0000F0349EA030353602268136843F00103C1
:1055B00013606368B3F5800F0BD0E3680F2B1BD823
:1055C000072B4DD8ACE02268136843F400631360E6
:1055D000E3E72268136843F400731360EDE7E26DBC
:1055E00012681A62E36D0433E365B4F8622092B284
:1055F000013A92B2A4F86220B4F862309BB2002B58
:1056000000F0C98023685A6912F0020FE7D1FCF755
:105610000DFBC01BA84202D3B5F1FF3F01D1002D05
:10562000EAD12046FFF71EFED4F8843043F480739D
:10563000C4F88430012384F88130002384F880305A
:105640000326C5E0E36D1B88A8F82030E36D023324
:10565000E365B4F862309BB2013B9BB2A4F86230C0
:10566000B4F862309BB2002B00F095802268536939
:1056700013F0020F15D0B4F862309BB2012BE1D9C0
:10568000E36B002BDED0E36D1B681362E36D043324
:10569000E365B4F862309BB2023B9BB2A4F862307F
:1056A000DEE7FCF7C3FAC01BA84202D3B5F1FF3F07
:1056B00001D1002DD4D12046FFF7D4FDD4F8843099
:1056C00043F48073C4F88430012384F881300023CC
:1056D00084F8803003267BE0B4F862309BB2012B63
:1056E00010D9E36B73B1E36D1B88A8F82030E36D2C
:1056F0000233E365B4F862309BB2023B9BB2A4F87C
:1057000062300DE0E36D1B7882F82030E36D0133E9
:10571000E365B4F862309BB2013B9BB2A4F86230FF
:10572000B4F862309BB2002B35D02268536913F075
:10573000020F15D0B4F862309BB2032BCCD9E36BC7
:10574000402BC9D9E36D1B681362E36D0433E36535
:10575000B4F862309BB2043B9BB2A4F86230DFE73E
:10576000FCF764FAC01BA84202D3B5F1FF3F01D198
:10577000002DD5D12046FFF775FDD4F8843043F4D1
:105780008073C4F88430012384F88130002384F8C6
:10579000803003261CE000972B460022082120467B
:1057A000FFF7D0FD28B1D4F8843043F02003C4F8CB
:1057B00084302046FFF756FD012384F88130002312
:1057C00084F88030D4F8843013B9002600E0022633
:1057D000304602B0BDE8F0870226F9E72DE9F04F28
:1057E00083B004468A4691461D46D0F800B0C66B89
:1057F000C6F34F16FCF71AFA94F88170FFB2012F26
:1058000040F02D820136B6B28046B9F1000F18BFC4
:10581000BAF1000F00F02482002D00F0218294F8EC
:105820008030012B00F02082012384F88030052392
:1058300084F881300023C4F88430C4F86490A4F85C
:105840006A50A4F86850C4F85CA0A4F86250A4F8A8
:105850006050236763672268D36823F4C023D36052
:1058600022689C499C4B9A4218BF8A4209D003F592
:1058700080639A4202D04FF0080904E04FF010090B
:1058800001E04FF0100953686FF30F032B4353608F
:105890002268136843F0010313606368B3F5800F57
:1058A00006D0E3680F2B7AD94FEA990BA9461FE07F
:1058B0002268136843F400731360F2E723685A699F
:1058C000B9F1000F14D0596911F0010F32D0626E96
:1058D0001B6B1360636E04336366B4F86A309BB26B
:1058E000013B9BB2A4F86A30B4F86A901FFA89F9B8
:1058F00045EA09039BB2002B00F0948123685A69A2
:1059000012F0020FDAD0002DD8D005EB0B02914532
:10591000D4D2E26D12681A62E36D0433E365B4F821
:1059200062309BB2013B9BB2A4F86230B4F8625083
:10593000ADB2C3E7B14514D212F4004F11D0626E7C
:105940001B6B1360636E04336366B4F86A309BB2FA
:10595000013B9BB2A4F86A30B4F86A901FFA89F947
:10596000C6E7FCF763F9A0EB08000C9B984202D352
:10597000B3F1FF3F02D10C9B002BB9D12046FFF7BA
:1059800071FCD4F8843043F48073C4F8843001236C
:1059900084F88130002384F88030032760E1072BEE
:1059A00040F23E814FEA59039A46A9461AE023681D
:1059B0005A69B9F1000F15D05B6913F0010F34D0AB
:1059C000636EBBF830201A80636E02336366B4F8EE
:1059D0006A309BB2013B9BB2A4F86A30B4F86A907B
:1059E0001FFA89F945EA09039BB2002B00F01A81DE
:1059F00023685B6913F0020FD9D0002DD7D053462E
:105A0000EB189945D3D2E36D1B88ABF82030E36DDA
:105A10000233E365B4F862309BB2013B9BB2A4F859
:105A20006230B4F86250ADB2C1E7B1451BD212F496
:105A3000004F18D0636EBBF830201A80636E9A1C3A
:105A40006266BBF830205A80636E02336366B4F836
:105A50006A309BB2023B9BB2A4F86A30B4F86A90F9
:105A60001FFA89F9BEE7B9F1010F15D112F4005FF1
:105A700012D0636EBBF830201A80636E0233636607
:105A8000B4F86A309BB2013B9BB2A4F86A30B4F818
:105A90006A901FFA89F9A5E7FCF7C8F8A0EB08009F
:105AA0000C9B984202D3B3F1FF3F02D10C9B002B19
:105AB00098D12046FFF7D6FBD4F8843043F48073A6
:105AC000C4F88430012384F88130002384F88030C6
:105AD0000327C5E0003001400038004023685A69C0
:105AE000BBF1000F15D0596911F0010F34D0626E6F
:105AF00093F830301370636E01336366B4F86A3024
:105B00009BB2013B9BB2A4F86A30B4F86AB01FFAAA
